:020000040800F2
:1000000070070020CD010008A9230008A1230008E3
:10001000A5230008450C0008BD23000800000000CF
:10002000000000000000000000000000B1230008F4
:10003000550C000800000000AD230008B52300089F
:10004000E7010008E7010008E7010008E7010008F0
:10005000E7010008E7010008E7010008E7010008E0
:10006000E7010008E7010008E7010008490C000863
:10007000E7010008E7010008E7010008E7010008C0
:10008000E7010008E7010008E7010008E7010008B0
:10009000E7010008E7010008E7010008E7010008A0
:1000A000E7010008E7010008E7010008E701000890
:1000B000E7010008E7010008E7010008E701000880
:1000C000E7010008E7010008E7010008E701000870
:1000D000E7010008E7010008E7010008E701000860
:1000E000E7010008E7010008E701000800F002F856
:1000F00000F05DF814A696E8000CB244B344DA456B
:1001000001D100F054F8BAE80F000FA696E83000CD
:10011000A5EB040504EB0607AAEB0704A7F101070A
:100120004FEA15154FEA3414A4F10104AC4201D38F
:1001300000F03DF813F0010F18BFFB1A43F0010364
:1001400000F001F8DBE718470C3000002C3000000D
:10015000103A24BF78C878C1FAD8520724BF30C8F3
:1001600030C144BF04680C60704700007047000055
:100170000023002400250026103A28BF78C1FBD8B0
:10018000520728BF30C148BF0B607047662902F094
:100190007E87002070471FB500F022FB040000207E
:1001A000002102F039FEE0601FBD10B510BD00F067
:1001B00017FC1146FFF7EFFF02F002F900F035FCE3
:1001C00003B4FFF7F2FF03BC00F078FC0948804756
:1001D00009480047FEE7FEE7FEE7FEE7FEE7FEE729
:1001E000FEE7FEE7FEE7FEE704480549054A064B41
:1001F00070470000B9230008ED00000870010020DE
:100200007007002070030020700300200FB41CB59D
:10021000074B06AA7B4469460090059800F0C7FA90
:100220000020694600F0D6FA1CBC5DF814FB000003
:10023000BD0500002DE9F0474FF0000A894604464D
:10024000C0F820A02046E1688847002876D02528FD
:1002500006D0D4E901219047206A401C2062F1E7D2
:10026000E168204600258847C4F81CA00646002700
:10027000C4F818A02A2E09D0304602F0C5FD38B3C4
:1002800004EB8708303EC8F8186019E059F8041BE1
:10029000204604EB87029161E1688847012F0646FA
:1002A00018D1E069002820DA25F020051DE0D8F8F3
:1002B000180000EB800006EB40003038C8F818004A
:1002C0002046E1688847064602F09EFD0028EED1F0
:1002D000012F0AD02E2E08D12046E16888477F1CC6
:1002E0000646022F45F02005C4DBA069002803DA8A
:1002F000404245F00105A061E80701D025F0100556
:10030000B6B1A6F14100192802D8203645F400659F
:100310004A463146204625604D46FFF737FF58B123
:10032000012806D0ED1D25F0070000F1080989E736
:1003300004E005F1040985E730468AE7206ABDE854
:10034000F08710B5431C02E010F8011B71B1810762
:10035000FAD14FF0013202C88C1A8C4314EAC21150
:10036000F9D0C01A0A0603D0C01E10BDC01A10BDB5
:100370000A0401D0801E10BD0902FCD0401E10BD31
:100380007047704770472DE9FF4F0C461E464FF0EF
:10039000FF378BB0D2E90001DDF860800A908A4611
:1003A000C1F30A5505B93D46002108464FF000004B
:1003B000BAF1000F00F4400005DA00EB80004FF4C2
:1003C000400101EA50004FEA9059B9F1010F00DDF8
:1003D000B9460A9850EA4A000ED044F61050A5F2E9
:1003E000FF3545432F14B8F1000F1ED07542291E6A
:1003F0001EDDC9F100021CE0B8F1010F4FF0000052
:1004000001D0302103E0F24305E02154401CB0420A
:10041000FBDB30460022002121540B99C1F80880F3
:10042000C1E900200FB0BDE8F08FBD1B6D1CDEE7F9
:100430004A4600DA694206A800F05CFA06AB93E887
:10044000070003AB83E8070050460A9902F000F961
:100450008DE80700A0F500501F3800900398002D8C
:100460000ADD42F21F014A460844002303A9039013
:10047000684602F069FB09E0A0F500504A461F38C3
:10048000002303A90390684602F073FB8DE8070080
:100490000004000C03D04FF0FF30410800E010468C
:1004A000B8F1000F03D00022009215461EE0751E21
:1004B00005D400F099F9303262556D1EF9D5B34676
:1004C0000122084302D000227F1C04E0207830285B
:1004D00001D100227F1E002A099784D01DE0112D32
:1004E00007DA00F081F9303262556D1C50EA0102E2
:1004F000F5D1084302D00098C8B10EE00021681E73
:1005000005E0235C625C63542254401E491C814216
:10051000F7DBAB46A81B401E0990002004F80B0037
:100520000B98099AC0F80880C0E9002B7AE71126D9
:100530004FF0000857E72DE9F04F88460446D21DDA
:1005400022F0070191B0D1E90001CDE90A0102F0E2
:1005500047FC02460B98C00F01D02D2007E0206811
:10056000810701D52B2002E0202101EAC000032AE7
:10057000099001D0072A05DB03464146204600F0DA
:1005800079F90BE12078800601D5E06900E00620CA
:10059000B8F1650F814606D0B8F1660F18D0B8F1F2
:1005A000670F70D131E00020B9F1110F009001DB2D
:1005B000112301E009F101030AAA01A90CA8FFF720
:1005C000E2FEDDE90C70002609F10105834647E0F3
:1005D00001204B4600904FF000470AAA01A90CA841
:1005E000FFF7D1FEDDE90DB00C995D46002610B98C
:1005F00009F101000D18B9EB050003D4C0F1FF3675
:1006000009F10105A5EB09002BE0B9F1010F01DAB1
:100610004FF001090020B9F1110F0090484601DDAB
:10062000112300E003460AAA01A90CA8FFF7ABFEBC
:10063000DDE90C704D4600268346207800070AD479
:10064000AB4500DA5D4601A8012D04DD411911F822
:10065000011C302907D04F4502DA17F1040F04DAE4
:10066000012082460FE06D1EEEE7002F02DCED1B3D
:100670003E4403E0781CA84200DD7D1CB81B00F15D
:10068000010A4FF000472078000703D4AA4501DB98
:100690004FF0FF3A0021B7F1004F0DF143088DF8FC
:1006A000431024D002202B23002F01DA7F422D2378
:1006B0000A21021EA0F1010000DC5FB197FBF1FCF2
:1006C00097FBF1F201FB1C7C17460CF1300C08F88B
:1006D00001CDEEE7A8F1010003702188090501D5DD
:1006E000452100E06521A0F1010800F8011C0998EE
:1006F0000FA9A1EB0807FF1D00B10120411901EB73
:10070000EA70A1693844081A401EA0612078C0062A
:1007100002D42046AFF30080099828B1D4E9012122
:100720009047206A401C20622078C00622D52046CF
:10073000AFF300801EE0002E04DBB34502DD01A80C
:10074000805D00E03020D4E901219047206A401C00
:100750002062761CAAF101005FEA000A0AD100F0CB
:100760003FF8C0680168405CD4E901219047206AE5
:10077000401C2062281EA5F10105DCDC07E0D4E95D
:10078000012118F8010B9047206A401C2062381E96
:10079000A7F10107F3DC2046AFF30080032011B07E
:1007A00041E6000001694A1C02610878704700B503
:1007B0008FB0CDE901310021059105497944CDE99A
:1007C000031011466846FFF735FD0FB000BD00006D
:1007D000E5FFFFFF0A6802F8010B0A60704700009E
:1007E000004870473000002030B5B0F10A0271F1C6
:1007F00000034FEA900E4EEA817EB0EB0E0061EBF3
:1008000091014FEA101E4EEA017E10EB0E0041EB03
:1008100011114FEA102E4EEA016E10EB0E0041EB63
:1008200011214FEA104E4EEA014E10EB0E0041EB43
:100830001141401841F100014FEAD00040EA4170F7
:100840004FEAD1014FEA810444EA907410EB80052D
:1008500044EB01046D1944EB0404521BA3414FF017
:10086000000348BF0A3200D530BD401C41F10001F1
:1008700030BD00002DE9F0411F4604460326016803
:10088000072A01F4006004DB08B116A505E016A5EF
:1008900003E008B115A500E015A521F010002060C7
:1008A000A069C01EA0610FB1401EA0612046AFF339
:1008B00000804FB1D4E9012138469047206A401C9E
:1008C0002062C01C206206E0206AFAE7D4E9012118
:1008D00015F8010B9047761EF8D22046AFF3008042
:1008E000BDE8F0814E414E006E616E00494E4600FB
:1008F000696E66002DE9F047814616468AB0354894
:1009000078440DC88DE80D0032487844801C03AC53
:100910000DC884E80D0041F69B300844372190FB58
:10092000F1F290FBF1F5A5F1800501FB12041B3CEF
:1009300002D56442012000E00020DFF898A0804644
:100940000027FA44AAF1BE0A0EE0E0070AD03246B8
:10095000684607EB470101230AEB810102F009F920
:100960008DE8070064107F1C002CEED1194F7F44E6
:10097000AE3F19E0E80715D007EB04100DF1180A97
:1009800090E80E008AE80E00C068F04201D1981984
:1009900008903246012306A903A802F0EAF803AB47
:1009A00083E807006D10641C002DE3D14FF00103B4
:1009B00032466946B8F1000F03A802D002F0C4F82D
:1009C00001E002F0D6F8C9E90001C9F808200AB030
:1009D000BDE8F0870C280000004870471000002098
:1009E0007546FFF7F9FFAE4605006946534620F00D
:1009F0000700854618B020B5FFF7F6FBBDE820409C
:100A00004FF000064FF000074FF000084FF0000BCA
:100A1000AC46ACE8C009ACE8C009ACE8C009ACE839
:100A2000C00921F007018D46704710B50446AFF3A9
:100A300000802046BDE81040FFF7C2BB4FF0013CEC
:100A400050F8042B51F8043B9A4221D1A2EB0C033D
:100A5000934313EACC1317D150F8042B51F8043BFD
:100A60009A4215D1A2EB0C03934313EACC130BD19A
:100A700050F8042B51F8043B9A4209D1A2EB0C0325
:100A8000934313EACC13DBD04FF00000704700BF54
:100A9000D01A01BAB1FA81F101F0180122FA01F07D
:100AA000CB40DBB2C0B2C01AC1F120012CFA01F375
:100AB000D11A914311EAC311E6D1704701491820B8
:100AC000ABBEFEE72600020070470000B0B504464A
:100AD00000688168C90709D0816821F0010181603F
:100AE00000F00CFE21688968C90701D10020B0BD63
:100AF000054602E08068C007F8D000F0FFFD411B0A
:100B000020680329F6D38168C907F3D0A06A40F0B2
:100B10001000A062E06A40F00100E0620120B0BD78
:100B20000146406A826A12F0500F03D0006A026BDD
:100B3000084610470168826A42F40072826289683E
:100B400001F46021B1F5602F01D1017B11B100F0FA
:100B5000B7B900BF816A21F480718162816AC904DA
:100B600048BF00F0ADB9816A41F00101816200F037
:100B7000A7B90000406A816A41F040018162C16A00
:100B800041F00401C16200F09FB90000406A00F02A
:100B900099B90000B0B582B00446002001902168E8
:100BA0008A68D2074BD1886840F00100886040F223
:100BB0000800C2F2000000684DF68361C4F21B31E8
:100BC000A0FB0101880C01900198A0B101980138A7
:100BD0000190019878B1019801380190019850B1C5
:100BE000019801380190019828B1019801380190CD
:100BF00001980028EAD100F081FD21688968C907C1
:100C00001CD1054603E000BF8068C00716D100F084
:100C100075FD411B20680329F6D38168C907F3D10C
:100C2000A06A40F01000A062E06A40F00100E062BB
:100C3000002084F82400012002B0B0BD002002B0E2
:100C4000B0BD0000FEE7000040F2E000C2F200008C
:100C500000F0D0BA70470000EFF3108072B600BF0A
:100C6000FEE7000070B582B004460020019094F8C1
:100C70002400012802D1022002B070BD012084F8B6
:100C800024002046FFF722FF2046FFF783FF28B10C
:100C9000002184F8241002B070BD00BF0646A06A8F
:100CA00041F2021188430230A06240F20800C2F211
:100CB00000000568022000F0DDFDB5FBF0F040000B
:100CC00001900198A8B100BF0198013801900198E6
:100CD00078B1019801380190019850B1019801381C
:100CE0000190019828B101980138019001980028DD
:100CF000EAD12068816841F00801816000F0FEFCC3
:100D000021688A6812070FD4886840F00400886060
:100D100000F0F4FC21688968490715D401216FF0BF
:100D20000302304622E000BF054602E08868000763
:100D3000EAD500F0E3FC401B21680B28F6D3886855
:100D40000007F3D50EE000BF054602E080684007CB
:100D5000E4D500F0D3FC411B20680B29F6D3816851
:100D60004907F3D5012010216FF01202A36A1A403F
:100D70001143A162002184F8241002B070BD00006C
:100D800070B581B00022009290F82420012A03D18E
:100D90000221084601B070BD4A680123062A02EB11
:100DA000820E80F8243007D8D0F800C06FF004031A
:100DB0000CF134060CE000BFD0F800C00C2A87BF4D
:100DC0000CF12C066FF040030CF130066FF022039B
:100DD0000EEB03021F23346803FA02F50B6824EAC2
:100DE000050503FA02F22A433260092B03EB4302A2
:100DF0001AD9DCF80C601E3A072589689540AE4385
:100E0000914023F001023143102ACCF80C1015D187
:100E100042F20041C4F201018C4517D0816A41F0D1
:100E20002001816201210AE0DCF810300726896880
:100E30009640B34391401943CCF810100021002292
:100E400080F82420084601B070BD00BF89680902FF
:100E5000F4D4DCF80810102B41F40001CCF8081091
:100E6000ECD140F20801C2F2000109684DF683623C
:100E7000C4F21B32A1FB0212910C01EB810149006B
:100E8000009100990029D9D0009901390091009969
:100E90000029D3D000990139009100990029CDD0C3
:100EA00000990139009100990029C7D000990139B2
:100EB0000091009900294FF00001E5D1BFE7000043
:100EC000704700007047000070470000002804BF12
:100ED00001207047B0B50446806A28B1216888684F
:100EE000C0070CD115E000BF0020E06284F82400A8
:100EF000204600F097F821688868C00709D0886804
:100F000020F00100886000F0F9FB21688A68D207B0
:100F100026D1A06AC0063AD4A06A41F202129043D8
:100F20000230A062E069D4E9013240EA030C531EAA
:100F3000B3FA83F35D091346B2F5807F18BF2B0225
:100F4000207D257B01284CEA45002CD135B3A56ACC
:100F500045F02005A562E56A45F00105E56222E05D
:100F6000054602E08868C007D3D000F0C7FB401BED
:100F700021680328F6D38868C007F3D0A06A40F040
:100F80001000A062E06A40F00100E062A06AA06A7E
:100F900040F01000A0620120B0BD00BFA56903EBC6
:100FA0004533A3F5C0534D68B2F5807F25F46945FC
:100FB00043EA05034B608B684FF2FD75CFF6E17590
:100FC00003EA050343EA00038B6001D0012A07D13D
:100FD00022690023CFF6F07303EB025201E000BF59
:100FE0000022CB6A23F470031A43CA62896840F670
:100FF000FE62CFF61F721140814207D10020E062ED
:10100000A16A012262F30101A162B0BDA06A40F0B1
:10101000100020F00200A062E06A40F00100E062EF
:101020000120B0BD70B586B0044640F60000C4F2A1
:101030000100216800F5E052002691420596CDE9B5
:101040000366029602D006B070BD00BF41F21801DF
:10105000C4F202010A6842F400720A600A6802F4EB
:1010600000720192019A0A6842F004020A6009685B
:1010700001F00401019101990621029103210391DC
:1010800002A900F02DFA40F2E0050820C2F20005A6
:10109000C4F202004FF48072C5E9000605F11000A9
:1010A00080214FF480634FF0200C80E80C1028461C
:1010B000C5E90261EE6100F06DF9002818BFFFF785
:1010C000CBFD25626C6206B070BD0000F0B581B04A
:1010D000036842F60006C4F20106B34205D042F2AC
:1010E0000046C4F20106B3420AD142F20443C4F2FC
:1010F00001031B6813F4702F02D0012001B0F0BD72
:1011000090F82430012B03D1022001B0F0BD00BFC4
:101110000D460121174680F824100646FFF73AFDD8
:1011200030B1002086F82400012001B0F0BD00BFDE
:1011300042F204403168B36AC4F20100324640F61C
:101140000176B34300F57F7603F58073B142936275
:1011500044D0906A20F4801090624868400504D51D
:10116000906A012363F30D309062936A0020DB04E0
:101170004FF0000344BFD36A23F00603D36282F822
:101180002400106A40F6213340F68D36C0F6000385
:10119000C0F6000640F67534C0F60004C0E90A3611
:1011A0006FF0020304630B608B68144643F4807392
:1011B0008B604C312A463B4600F02EF9206881684E
:1011C00001F460228168B2F5602F0CBF41F4A001E8
:1011D00041F480118160002001B0F0BD036813F478
:1011E000702FB6D0936A43F4801393620068400571
:1011F000B6D4BAE710B5D0E90FCE0168DCF80030FC
:101200000A6823FA0EF35C072AD512F0040427D0EB
:101210000A68920603D40A6822F004020A602F22A8
:10122000C4F20202914240F20402C4F202025BDD07
:101230003023C4F20203994272D04423C4F2020361
:10124000994273D05823C4F20203994240F07A8045
:101250004FF480231360C16A002940F098806FE04A
:101260009C0727D512F0020424D00A68920606D4FF
:101270000A6822F00A020A60012280F821202F2247
:10128000C4F20202914240F20402C4F202023BDDC7
:101290003023C4F20203994260D04423C4F2020313
:1012A00099425FD05823C4F20203994260D14FF4AF
:1012B000003365E01B0743D512F0080208BF10BDDC
:1012C0000A6822F00E020A60012101FA0EF2CCF83F
:1012D0000420816380F82110016B0022002980F82E
:1012E000202054D12CE000BF0823C4F2020399420D
:1012F00022D01C23C4F20203994223D1402313605D
:10130000C16A002943D11BE00823C4F202039942B9
:101310002CD01C23C4F20203994229D120232FE0B0
:101320004FF480631360C16A89BB09E04FF48043C6
:101330001360C16A59BB03E004231360C16A31BB67
:1013400010BD00BF02F168044FF08063A14208BFE6
:101350004FF480031360C16AC9B9F1E74FF4007319
:101360000EE000BF4FF400530AE000BF022307E085
:1013700002F168044FF00073A14208BF4FF400135C
:101380001360816A0022002980F82020D8D0BDE8AF
:1013900010400847014600284FF0010008BF704781
:1013A0002DE9F043D1F800C04FF6F873CBF6FD738A
:1013B0004CF6CD426344CCF6CC42A3FB02236FF043
:1013C000030202EA93020023C4F2020301F10C08B3
:1013D000C1E90F320222D1E9019E98E8F00181F8BB
:1013E0002120DCF8002043F6F0739A4342EA090218
:1013F00042EA0E0222432A4332433A4342EA0802B7
:10140000CCF8002000228A6381F8210081F8202096
:101410000020BDE8F043704790F820C0BCF1010FF8
:1014200004BF02207047F0B54FF0010E80F820E0B5
:1014300090F821C0BCF1010F26D14FF0020C80F8CA
:1014400021C04FF0000CC0F838C0D0E900C4C56A14
:10145000C66BDCF80070102C27F00107CCF8007088
:10146000006C0EFA00F070600846CCF8043004BF3F
:1014700010460A46CCF80800CCF80C20DCF8000036
:1014800045B140F00E000DE0002180F82010022050
:10149000F0BD00BF20F00400CCF80000DCF8000034
:1014A00040F00A00CCF80000DCF8000040F0010039
:1014B000CCF800000020F0BDB0B5044600F01EF9E5
:1014C000054640F20000C2F200000078611C18BF1F
:1014D000044400BF00F012F9401BA042FAD3B0BD93
:1014E0002DE9F04F82B00E68002E00F0FD8041F231
:1014F0000042C4F20102042340F2004E904208BFB1
:1015000003234FF6FF7CC4F2010E00930024012355
:10151000C1F2100C4FF0000A4FF000094BE000BF81
:1015200041F20002C4F20102009F904208BF02276C
:1015300004F00C030F229A402BEA020207FA03F38D
:101540004FEA9A051A4346F825204E6840F20C45AA
:10155000F202DEF8082054BF22EA080242EA08023A
:10156000C4F20105CEF808202A68B30254BF22EA6B
:10157000080242EA08022A60B303DEF8042054BFDE
:1015800022EA080242EA0802F303CEF80420DEF859
:1015900000204FF0010354BF22EA080242EA080289
:1015A000CEF800200E680AF1010A36FA0AF204F1B8
:1015B000040400F0998003FA0AFB16EA0B08F1D044
:1015C0004E68664512DC122E56D8DFE806F0350B61
:1015D0004D495555555555555555555555555545DF
:1015E000510000BFD1F80C9046E000BF4FF6FF72EB
:1015F000C1F2210296420FDC0022C1F21102964292
:101600001AD00022C1F21202964215D00022C1F275
:101610002102964210D02FE00022C1F2220296420F
:101620000AD00022C1F23102964205D00022C1F256
:101630003202964220D100BF8A684AB1012A14BF03
:10164000C0F814B0C0F810B04FF0080914E000BFA3
:101650004FF0040910E000BFCA6802F104090BE072
:101660004FF0000908E000BFCA6802F1080903E072
:10167000CA6802F10C0900BF02462646B8F5807F11
:1016800024BF0432203E17680F25B54027EA050520
:1016900009FA06F635431560CA79D2067FF582AF9E
:1016A00041F21803C4F202031A68AEF57E7642F0E6
:1016B00001021A601A6802F001020192019A2AF0EE
:1016C000030256F802B040F60002C4F20102904252
:1016D00008D040F60042C4F2010290427FF420AFED
:1016E000012725E7002723E702B0BDE8F08F0000BF
:1016F000002A08BF090401617047000040F26C1025
:10170000C2F200000068704740F2000040F26C1125
:10171000C2F20000C2F2000100780A6810440860BA
:101720007047000080B542F20000C4F20200016878
:1017300041F010010160032000F08CF80F2000F050
:1017400005F800F027F8002080BD000070B540F2D9
:101750000006C2F2000640F208013278C2F200012F
:101760004FF47A730968B3FBF2F20446B1FBF2F16D
:10177000084600F083FC0F2C4FF0010508D838B95B
:101780004FF0FF3021460022002500F037F874604A
:10179000284670BD82B041F21800C4F20200016810
:1017A000022241F001010160016801F00101019193
:1017B0000199416841F080514160406800F08050DB
:1017C000009000980420C4F20100016862F31A61DD
:1017D000016002B070470000002848BF704700F069
:1017E0001F01012202FA01F11C2202EAD0004EF28E
:1017F0000012CEF2000281507047000010B54EF684
:101800000C5CCEF2000CDCF80030C3F3022E8EF03C
:101810000704042C28BF0424BEF103034FF0FF3E4D
:101820000EFA04F438BF0023A14399400EFA03F3E3
:101830009A43114300F00F0200F160430901043A9A
:1018400003F564436244002848BF02F10C03197099
:1018500010BD00004EF60C51CEF200010A684FF6A2
:10186000FF031A4060F30A2242F0806040F0FD70EE
:1018700008607047012821D002280DD0102808D117
:1018800041F20401C4F202010A6851F8040CC001DB
:1018900034D40020704700BF80B500F0DBF941F27E
:1018A0000401C4F2020109680222C1F3813102EB92
:1018B0004101B0FBF1F0BDE88040704741F2040007
:1018C000C4F20200C16940F202320A40B2F5817FDF
:1018D00004BF4FF40040704701F44071B1F5407F00
:1018E00018D0B1F5007F1CBF00207047006A49F690
:1018F0004041800701EAE070704700BFC2F38340B7
:1019000015A3185CD2030DD440F60012C0F23D02BC
:10191000504313E050F8040C4FF22441800301EAD5
:10192000E07070470A6810A3C2F340429A5C41F22B
:101930000023C0F27A03B3FBF2F250430968490274
:1019400048BF70474AF6AB214000CAF6AA21A0FB67
:1019500001014808704700BF020304050607080993
:101960000A0B0C0D0E0F1010010200002DE9F041C2
:1019700082B00446007841F21C06C007C4F2020699
:101980004AD030685FEAC00808D4306840F0805020
:101990003060306800F080500190019847F20007F5
:1019A000C4F200073868C00512D4386840F480706B
:1019B0003860FFF7A3FE05463868C00508D4FFF776
:1019C0009DFE401B6428F7D9032002B0BDE8F081DA
:1019D000706810F4407012D0616801F44071884260
:1019E0000DD0706840F24042C4F24222012320F43C
:1019F000407113600023C0071360716026D17068C6
:101A0000616820F440700843B8F1000F706003D49F
:101A1000306820F0805030602068810707D556F884
:101A2000181CA26821F44041114346F8181CC00656
:101A300007D556F8180CE16820F48000084346F8F2
:101A4000180C002002B0BDE8F08100BFFFF756FE81
:101A5000054641F2883700BF70688007CFD4FFF792
:101A60004DFE401BB8424FF00300F5D9EAE70000F5
:101A7000002804BF012070472DE9F04381B042F2F5
:101A80000008C4F202080446D8F800000D4600F031
:101A9000070081420CD9D8F8000020F00700284345
:101AA000C8F80000D8F8000000F00700A8426CD188
:101AB000206841F204098107C4F2020917D54107E1
:101AC00005D5D9F8001041F4E061C9F8001001070C
:101AD00005D5D9F8001041F46051C9F80010D9F8C3
:101AE0000010A26821F0F0011143C9F80010C007EE
:101AF00042D1D8F8000000F0070085420CD2D8F897
:101B0000000020F007002843C8F80000D8F80000C3
:101B100000F00700A84238D12068410707D5D9F85E
:101B20000010E26821F4E0611143C9F800100007D9
:101B300008D5D9F80000216920F4605040EAC100BE
:101B4000C9F80000D9F8002002F00C00082841F282
:101B50000020C0F27A004DD143F24213C2F3834118
:101B6000C0F60003595CD20338D440F60010C0F22E
:101B70003D0048433EE000BF606859F8041C02285D
:101B800008D0012826D1890306D4012001B0BDE880
:101B9000F08300BF8901F8D5D9F8001021F00301C6
:101BA0000843C9F80000FFF7A9FD064641F288374F
:101BB000D9F80000616800F00C00B0EB810F98D0FC
:101BC000FFF79CFD801BB842F2D9032001B0BDE8AD
:101BD000F08300BF8907D8D5DEE700BFD9F8002021
:101BE00043F24013C2F34042C0F600039A5C4843FC
:101BF000B0FBF2F0D9F8001043F22812C1F3031140
:101C0000C0F60002515C40F2080220FA01F140F2F5
:101C10000400C2F200000068C2F200021160FFF787
:101C200095FD002001B0BDE8F083000040F20800FF
:101C300041F20401C2F20000C4F202010068096826
:101C400043F23812C1F30221C0F60002515CC840D1
:101C50007047000040F2080041F20401C2F20000A7
:101C6000C4F202010068096843F23812C1F3C221CC
:101C7000C0F60002515CC84070470000002804BF55
:101C8000012070472DE9F04182B00446007841F20E
:101C90000006C007C4F202060CD0706800F00C0009
:101CA000042840F081803068800303D560680028F4
:101CB00000F04681207880071BD5706810F00C0F6B
:101CC00009D0706800F00C00082840F08780706828
:101CD000C00300F183803068800703D520690128A4
:101CE00040F02E813068616920F0F80040EAC100C0
:101CF00030602078000713D4207840072CD4E569A1
:101D0000002D00F01881706800F00C00082840F0E9
:101D1000A780012D40F00481012002B0BDE8F081D0
:101D2000A069002800F084800020C4F24220012134
:101D3000C0F88014FFF7E2FC054600BF706A800718
:101D400000F1B280FFF7DAFC401B0228F6D903202D
:101D500002B0BDE8F08100BFF0695FEAC00808D4B6
:101D6000F06940F08050F061F06900F08050009020
:101D7000009847F20007C4F200073868C00549D44C
:101D8000386840F480703860FFF7B8FC054600BF43
:101D90003868C0053ED4FFF7B1FC401B6428F7D972
:101DA000032002B0BDE8F081706800F00C00082844
:101DB00003D17068C0033FF576AF616830680029D1
:101DC00000F00C81B1F5A02F00F00081B1F5803F4B
:101DD00040F01A8140F480301CE100BF20690028E7
:101DE00040F20000C4F2422000F08880012101602E
:101DF000FFF784FC054600BF306880073FF572AFEF
:101E0000FFF77CFC401B0228F6D9032002B0BDE896
:101E1000F08100BFE168306A002900F09D8005294B
:101E200000F09280012940F0AF8040F00100B1E065
:101E30000020C4F242200021C0F88014FFF75EFCAD
:101E4000054600BF706A80077FF556AFFFF756FC66
:101E5000401B0228F6D9032002B0BDE8F08100BF84
:101E60000027C4F2422700203866FFF747FC022D06
:101E700005460DD13068800140F1DE80FFF73EFC61
:101E8000401B02284FF00300F4D902B0BDE8F081F6
:101E9000306880014FD5FFF731FC401B02284FF01E
:101EA0000300F5D9F1E700BF40F20800C2F20000DC
:101EB000006844F6D351C1F26201A0FB0101480A57
:101EC000019000BF00BF0198411E002801913FF41E
:101ED00013AF00BF0198411E002801913FF40CAFE1
:101EE00000BF0198411E002801913FF405AF00BFDB
:101EF0000198411E00280191E4D1FDE60021016016
:101F0000FFF7FCFB054600BF306880077FF5F1AEA8
:101F1000FFF7F4FB401B02284FF00300F4D9B4E7AD
:101F20007068216A00F480328A4209D1616A00F443
:101F30007010884204D1002002B0BDE8F08100BFDB
:101F4000012002B0BDE8F08140F004003062306A48
:101F500040F001001EE000BF20F001003062306A56
:101F600020F004003062FFF7C9FB054641F28837D4
:101F7000306A800720D5FFF7C1FB401BB8424FF005
:101F80000300F5D981E700BF20F001003062306A1C
:101F900020F004003062FFF7B1FB054641F28837BC
:101FA000306A800708D4FFF7A9FB401BB842F7D975
:101FB000032002B0BDE8F081B8F1000F3FF59FAEFD
:101FC000F06920F08050F06199E600BF40F4802075
:101FD0003060306840F480301CE000BF20F4803076
:101FE0003060306820F480203060FFF787FB0546C2
:101FF000306880037FF55EAEFFF780FB401B6428EE
:102000004FF00300F4D940E720F4803030603068AE
:1020100020F480203060FFF771FB054630688003B4
:102020003FF548AEFFF76AFB401B6428F6D9032052
:1020300002B0BDE8F08100BF206AB0F5803F05D155
:102040007168A26821F40031114371607168626A9D
:1020500021F4741111430843706001203866FFF7C2
:102060004DFB0446306880013FF565AFFFF746FB46
:10207000001B02284FF00300F4D906E7411E0020A0
:10208000B0EB116F1CBF012070474EF21002CEF270
:10209000000251604EF62351CEF20001F0230B7086
:1020A0000721906011607047002804BF012070472D
:1020B00010B5044690F8410028B9002084F840008B
:1020C000204600F063F8242084F841002068D4E919
:1020D0000212C36823F40053C360036923F440531E
:1020E0001A430261D4E904231143C268194341F23F
:1020F0000C639A431143C1604169A26921F44071A4
:10210000114343F60002C4F201029042416103D040
:10211000FFF78CFD02E000BFFFF79CFDD4E9002330
:10212000192148439900B0FBF1F048F21F5CC5F259
:10213000EB1CA0FB0C314FF69C734909C0F6FF73F2
:1021400001FB0300322303EB0010A0FB0C03F02083
:1021500000EA531000EB0110C3F3431108449060F0
:102160001069202120F490401061506920F02A006D
:102170005061D06840F40050D0600020606484F862
:10218000411084F84210606310BD000070B586B045
:1021900040F60004C4F20104006804F54051002632
:1021A00088420596CDE90366029601D006B070BD5F
:1021B00041F21800C4F20200016802AD41F480410E
:1021C0000160016801F4804101910199016841F0C9
:1021D000040101600068294600F0040001900198A4
:1021E0004FF40070029002200390032005902046D7
:1021F000FFF776F94FF48060CDE9020620462946C4
:102200000496FFF76DF906B070BD00002DE9F043AC
:1022100081B0044690F84100202809D100294FF0F0
:10222000010018BF002A07D101B0BDE8F08300BF4C
:10223000022001B0BDE8F0830020606421201D462B
:102240000E4684F841001746FFF758FAA784E78442
:10225000A1688146B1F5805F02D1206900285DD078
:1022600037460020E28C2168002A5DD06A1C24D009
:10227000002D4AD0804600BF0868000608D4FFF74A
:102280003DFAA0EB0900A8427AD82168C868F3E7B4
:1022900017B117F8010B04E038F8020B00276FF3B1
:1022A0005F204860E08C0138E084E08C0028E3D1B6
:1022B0003AE000BF0A68120609D40A68120606D47A
:1022C0000A6812065CBF0A685FEA0262F2D51FB1B3
:1022D00017F8012B05E000BF30F8022B00276FF341
:1022E0005F224A60E28C013AE284E28C002AE4D167
:1022F0001AE000BF30F8022B00276FF35F224A601C
:10230000E28C013AE284E28C72B10A68120635D599
:10231000002FEFD017F8012BF1E700BF0027304660
:10232000E28C2168002AA1D1086840061ED42DB392
:10233000681C14D1086840062AD40868400627D4CF
:102340000868400624D4086840064FF00000F1D524
:102350000DE000BF2068C1680068400618D4FFF790
:10236000CDF9A0EB0900A842F4D909E00020202112
:1023700084F8411001B0BDE8F08300BFFFF7BEF95B
:102380000320202184F8411001B0BDE8F08300BF94
:102390000020202184F8411001B0BDE8F083000046
:1023A000FEE70000FEE70000FEE7000070470000C7
:1023B00070470000FFF7A8B970470000FEE7000073
:1023C00096B0FFF7AFF900240120CDE91144CDE923
:1023D0000F440C9010904FF4E0104FF48031022520
:1023E00015900CA80694CDE90444CDE90D14CDE96F
:1023F0001351FFF743FC28B1EFF3108072B600BF12
:10240000FEE700BF0F20CDE907054FF48060CDE95E
:102410000A0407A802210994FFF72AFB20B1EFF371
:10242000108072B6FEE700BF4FF400400224059012
:1024300003A80394FFF79AFA20B1EFF3108072B665
:10244000FEE700BF002541F21807CDE90E55CDE9A2
:102450000C55C4F20207386841F2000840F0100041
:1024600038603868C4F2010800F01000079007983F
:1024700038684FF4005140F020003860386800227E
:1024800000F020000790079838684FF4005640F09D
:1024900004003860386800F0040007900798404650
:1024A000FFF726F90C9601260CA94046CDE90D65EB
:1024B0000F94FFF715F857F8040C002140F00100C5
:1024C00047F8040C57F8040C002200F001000C90AF
:1024D0000C980B20FFF792F90B20FFF77DF940F2E3
:1024E000700BC2F2000B08F5A051584640F80C1FC3
:1024F0004FF480714FF4602205730575C261C0E925
:1025000001510461FEF7E2FC20B1EFF3108072B6D6
:10251000FEE700BF0BF10C0A0CA95046CDE90C6692
:102520000E95FEF72DFC28B1EFF3108072B600BFB8
:10253000FEE700BF0220CDE90C000CA95046FEF7D3
:102540001FFC28B1EFF3108072B600BFFEE700BF9A
:1025500040F2241008F52051C2F2000000230C279D
:102560004FF4E13280E80E00C0E90333C0E905739F
:10257000C361FFF799FD28B1EFF3108072B600BF79
:10258000FEE700BF5046FEF76DFB0BF13C0700BFB6
:1025900040464FF400510022FFF7AAF85046594632
:1025A0000222FEF793FDBBF80040204600F05CFDE0
:1025B0004546BBF80280CBF80400404600F054FDCD
:1025C000CBF80800204600F03DFC04464046894612
:1025D000A84600F037FC43F233334FF03332C3F6F2
:1025E000F37300F043FC06460D46384611A122461F
:1025F0004B46CDE90065FDF709FE3846FDF7A1FE23
:1026000082B240F22410C2F2000039464FF0FF338C
:10261000FFF7FCFD4FF47A70FEF74EFF40464FF493
:1026200000510122FFF764F84FF47A70FEF744FF7F
:10263000AEE700BF6C6566743A20252E30660D0A41
:1026400072696768743A20252E30660D0A00000012
:102650005FEA400C08BF91F0000F4FEA8C234FEA6D
:10266000C12243EA51514FEA1C5018BF00F5F04017
:102670004FEA300018BF41F000415FEA6C5C00F0A7
:102680002980BCF1FF3F08BF40F080407047130C29
:1026900006BF12044FF0100C4FF0000C130E04BFD5
:1026A00012020CF1080C130F04BF12010CF1040C00
:1026B000930F04BF92000CF1020CD30F04BF520021
:1026C0000CF1010C11464FF00002A0F11F00A0EB2D
:1026D0000C00704711F0004F08BF704731F0004107
:1026E0003FF4D5AF0B0C06BF09044FF0100C4FF0B0
:1026F000000C0B0E04BF09020CF1080C0B0F04BFF9
:1027000009010CF1040C8B0F04BF89000CF1020CC1
:10271000CB0F04BF49000CF1010CCCF1200322FACD
:1027200003F341EA030102FA0CF2A0EB0C0000F102
:102730000100704723F07F4720F07F4C80EA0300C0
:1027400000F00040ACEB070303F57C5303F1FF03FB
:102750002DE9804909B44FEA144324EA03484FEABB
:10276000154B25EA0B4E0FF2042606EB13273E7895
:1027700003FB0667C7F5000707FB06F64FEAD646D8
:1027800006F102064FEA543707FB066CCCF1005CF9
:102790004FEA1C472CEA074C0CFB06F507FB06F436
:1027A00004EB15464FEA961649085FEA320234BF39
:1027B00000204FF000404FEAD13706FB07FC4FEAFC
:1027C0001C4C0CFB0BF7D21B03FB0CF761EB070156
:1027D0000CFB0EF7B0EB074072EB17420CFB08F74F
:1027E00034BFA2EB0742B2EB074261EB17414FEA5D
:1027F0000C444FEA910706FB07FC4FEA1C4C0CFB0C
:102800000BF7B0EBC74072EB573203FB0CF734BF4A
:10281000A2EBC742B2EBC74261EB57310CFB0EF79C
:10282000B0EBC70072EB57720CFB08F734BFA2EB9A
:10283000C702B2EBC70261EB57714FEA816141EA0F
:1028400092114FEA826242EA90124FEA806004EBF2
:10285000CC04039F4FEAD13706FB07FC4FEA1C4C20
:102860000CFB0BF7D21B03FB0CF761EB07010CFB16
:102870000EF7B0EB074072EB17420CFB08F734BFC2
:10288000A2EB0742B2EB074261EB17414FEA8C55CE
:1028900004EB9C244FEA910706FB07FC4FEA1C4C13
:1028A0000CFB0BF7B0EBC74072EB573203FB0CF796
:1028B00034BFA2EBC742B2EBC74261EB57310CFB0E
:1028C0000EF7B0EBC70072EB57720CFB08F734BF82
:1028D000A2EBC702B2EBC70261EB57714FEA81610D
:1028E00041EA92114FEA826242EA90124FEA806016
:1028F00015EB4C2544F100044FEAD13706FB07FCE9
:102900004FEA1C4C0CFB0BF7D21B03FB0CF761EBE3
:1029100007010CFB0EF7B0EB074072EB17420CFB04
:1029200008F734BFA2EB0742B2EB074261EB174155
:102930004FEA813141EA92414FEA823242EA9042C3
:102940004FEA80304FEA0C7615EB1C1544F1000479
:1029500048EA03434EEA0B484FF0000EB2EB080C76
:1029600071EB030724BF624639464EEB0E0E4FF063
:10297000000B0018524149414BEB0B0BB2EB080C1A
:1029800071EB03077BF1000B24BF624639464EEB27
:102990000E0E4FF0000B0018524149414BEB0B0B50
:1029A000B2EB080C71EB03077BF1000B24BF62460E
:1029B00039464EEB0E0E51EA020718BF46F00106EB
:1029C00016EB0E7655F1000254F1000103D5BDE877
:1029D0008901BDE80088BDE88901BDE80048B61955
:1029E000524141EB0101A3F10103704780807F7EDA
:1029F0007D7C7B7A79787776767574737271717075
:102A00006F6E6E6D6C6C6B6A6A6968686766666526
:102A10006464636362616160605F5F5E5E5D5D5CB4
:102A20005C5B5B5A5A595958585757565655555525
:102A30005454535352525251515050504F4F4F4E85
:102A40004E4D4D4D4C4C4C4B4B4B4A4A4A494949D3
:102A50004848484747474746464645454544444415
:102A60004443434343424242424141419C46002B3E
:102A700030D477002BD04FEA37071CB503B44FF0A2
:102A800010004FF01001BAF1000F06D0BCF1000F9A
:102A9000DCBF40F0080040F008014FF000000FBC20
:102AA000BDE810400BF1010BBBF1010F08BF5FEA5D
:102AB000170722BF12F1010211F101014FF000418D
:102AC00043F1000300F0004043EA00007047F9D3EF
:102AD0005708D0E746EA06464FEA164613F1400F7C
:102AE0001FDD13F1200FDFBF16430A4600212033FC
:102AF0005B42BED0C3F1200746EA06464FEA1646BF
:102B000002FA07F746EA070622FA03F2C3F12007A2
:102B100001FA07F742EA070221FA03F14FF0000336
:102B2000A7E746EA020646EA06464FEA164646EA9E
:102B30000106BCBF46EA0646360C4FF000034FF0D4
:102B400000024FF0000194E72DE9804C70B49A46E2
:102B5000934691E8380007C831EA400C48BF34EA90
:102B6000430C03D5FFF7E6FDFFF780FFF0BCBDE89F
:102B7000008C2DE9804C70B49A46934691E8380059
:102B800007C810F0804F08BF13F0804F03D100F04A
:102B900005F8FFF76BFFF0BCBDE8008C20F07F4725
:102BA00023F07F4C80EA030000F0004007EB0C03A9
:102BB000A3F57C53A3F1FE0392F0000F00F0B38065
:102BC00095F0000F00F077802DE901494FEA1140A0
:102BD00021EA00484FEA144624EA064700FB06FCB7
:102BE00008FB06F607FB08F818EB06484CEB164CFA
:102BF00000FB07F718EB07484CEB17404FEA124B66
:102C000022EA0B4E4FEA154625EA06470BFB06FC67
:102C10000EFB06F607FB0EFE1EEB064E4CEB164CAB
:102C20000BFB07F71EEB074E4CEB174B18EB0B0893
:102C300040F1000018EB0E0B58EB000840F10000CB
:102C40008F1A4FF000014FF000063CBFC943661BCE
:102C500014BFB5EB040C00213CBFC943F61B4FEA7F
:102C6000174427EA04454FEA1C472CEA074C04FBAB
:102C7000076205FB07F70CFB05F616EB074642EB70
:102C8000174204FB0CFC16EB0C4642EB1C421BEB00
:102C9000060658EB020241414EEA8E0E46EA9E06B7
:102CA00001D5BDE80189B619524141EB0101A3F1FB
:102CB0000103BDE801894FEA144524EA05464FEABD
:102CC000114721EA074C05FB07F406FB07F70CFB4D
:102CD00006F111EB074144EB174405FB0CFC11EB2B
:102CE0000C4144EB1C444FEA124722EA074C05FB17
:102CF00007F206FB07F70CFB06F616EB074642EB5E
:102D0000174205FB0CFC16EB0C4642EB1C456A18FF
:102D100054F1000148BF7047B619524141EB01011F
:102D2000A3F10103704795F0000F37D04FEA11422D
:102D300021EA02464FEA144724EA074C02FB07F156
:102D400006FB07F70CFB06F414EB074441EB1741B5
:102D500002FB0CFC14EB0C4441EB1C414FEA154701
:102D600025EA074C02FB07F506FB07F70CFB06F606
:102D700016EB074645EB174502FB0CFC16EB0C4621
:102D800045EB1C42121951F1000148BF7047B619BA
:102D9000524141EB0101A3F1010370474FEA144591
:102DA00024EA05464FEA114721EA074C05FB07F1E3
:102DB00006FB07F70CFB06F212EB074241EB17414B
:102DC00005FB0CFC12EB0C4251EB1C414FF00006D2
:102DD00048BF7047921841EB0101A3F1010370470E
:102DE000490050EAC12018BF04204A0D18BF40F026
:102DF000010040F2FF72B2EB515F08BF40F00200E9
:102E0000012808BF0520704730380A2801D2012068
:102E1000704700207047000010B500290AD00878DC
:102E2000002807D005487844FDF708FE002801D0A7
:102E3000002010BD0248784410BD00004E03000081
:102E400046030000B0FA80F310FA03F10AD0C3F190
:102E50001D0303F580634FEA03524FEA415002EB32
:102E6000D12170474FF000007047000070B5DFF8C7
:102E700048C11CEA111E1EBF1CEA13159EEA0C0F66
:102E800095EA0C0F00F06F8081EA03044EEAD47ECD
:102E9000AE4421EA4C1123EA4C1341F4801143F46F
:102EA0008013AEF17F7EA1FB024CA0FB03653619B7
:102EB00055EB0C05A1FB034C4CF10003A0FB021CDD
:102EC00016EB0C06654153F10003094218BF46F0AA
:102ED000010613F4007F0BD14FEA03314FEA0530AE
:102EE00041EA155140EA165034036FF003020AE03C
:102EF0004FEAC3214FEAC52041EA555140EA5650F6
:102F0000F4026FF0020202EB2E4201EB025585EA59
:102F1000CE710AD05FEA440C18BF24F0004450F18F
:102F2000000041F1000120EAD47040F2FE7C6245CD
:102F300000D270BDA84214BF4FF080444FF040440F
:102F4000002E08BF0024BEF1806FA8BFA1F1C041D0
:102F5000BDE8704080F2828001F1C04101F0004183
:102F60004FF0000070470CEA13159EEA0C0F18BFD3
:102F700095EA0C0F06D081EA030E4FF000000EF028
:102F8000004170BD00F01CF88900013E00F007B858
:102F900000F009B84FEA430C5FEA5C5C08D081EAB4
:102FA000030100F05BB84FEA410C5FEA5C5CF6D1CC
:102FB00002494FF0000070470000FF070000F87F53
:102FC0000EF1020E2EF0030E5EF8046B364205D4AD
:102FD000012A43EB030515F5001F12D8012841EB28
:102FE000010C1CF5001F0CD80ED14FEAD17C0CEB64
:102FF0004C0C0CF1020C15F5001F08BF4CEBD37CF8
:1030000004E04FF0080C01E04FEAD37C0CEB4C05D8
:1030100026FA05F606F00706B6F1040C06D20EEB0A
:10302000860CBDE870404CF0010C6047DFE80CF006
:10303000090B02024FF00041A1F500214FF0000002
:1030400070BD19461046012851EB010418BFD4F594
:10305000001484BF002001F0004170BD0808A0F5F5
:1030600000114FEA31017047B0FA80F310FA03F211
:10307000C3F19D030AD0D90501EB1220530638BFD6
:10308000704700F1010008BF20F001007047FDF714
:1030900052BA000002400000000000A00000000042
:1030A00005400000000000C8000000000C400000C7
:1030B0000000409C00000000194000000020BCBE41
:1030C0000000000034400000BFC91B8E0000000457
:1030D000B5400000504BCFD06607E2CF01000000A2
:1030E0006C4100003E8251AADFEEA73401000000CF
:1030F000D9420000DCB5A0E23A301F97FFFFFFFF86
:10310000B4450000FD25A0C8E9A3C14FFFFFFFFFA4
:10311000FF3F00000000008000000000FF3F0000B3
:10312000000000800000000000000000000000001F
:10313000010203040607080900000000010203045D
:10314000010202030405060708090A0B0C0D0E0F05
:103150001010000090310008000000201000000056
:1031600050010008A0310008100000206007000096
:10317000700100081C00000043000000F8FFFFFF82
:103180000C0000000E0000000F0000002E000000E8
:10319000010000001000000000127A000000000092
:04000005080000ED02
:00000001FF
